:100000003FC059C058C057C056C055C063C853C040
:1000100052C051C050C04FC04EC083C94CC04BC02D
:100020004AC0B2C8B4C8B6C8B8C8BAC8BCC8BEC846
:10003000C0C8DECAD5CA4ECBD9CAD6CA4BCB4ACB6A
:10004000CACA48CB47CBD6CAE0CAEACAF2CAFACA79
:1000500002CB0CCB16CB20CB2FCB52CB5FCB4DCBD7
:100060004CCB64CBB8CBB7CB48CBB5CB61CB72CB49
:1000700073CB74CB75CB76CB77CB7ACB9ACBA2CB29
:1000800011241FBECFE5D2E0DEBFCDBF10E0A0E659
:10009000B0E0E0E9FFE102C005900D92A038B107A1
:1000A000D9F720E0A0E8B0E001C01D92A13DB20761
:1000B000E1F7B7DC6BCFA4CF80917F00982F990F29
:1000C00082FB332730F981FB222720F9232783FB8A
:1000D000332730F92327881F8827881F28139F5F1D
:1000E00090937F0080917F008C3308F08B7308958C
:1000F00040E051E091E0282F30E0642F70E062177B
:10010000730724F4550F950F4F5FF7CF892F08958C
:10011000282F882339F090E081E0880F9F5F291312
:10012000FCCF089581E008951F93CF93DF93162F9E
:10013000D42FC091AD009C2F28E0829F90191124EC
:10014000892FE6DFC11718F091E0DC1708F490E082
:10015000899F802D1124DF91CF911F9108956F9277
:100160007F928F92AF92BF92CF92DF92EF92FF92E7
:100170000F931F93CF93DF93CDB7DEB7B82ED62E54
:10018000F42E122F47E060E0882DCEDF9EEA692E24
:1001900090E0792E8B29F30182874FE068E0882D6B
:1001A000C3DF8D29F301838747E160E1882DBCDF40
:1001B0008F29F30184874FE168E1882DB5DF812B1A
:1001C000F301858747E260E2882DAEDF802BF301E3
:1001D00086874FE268E2882DA7DF8E29F3018787A3
:1001E00047E360E3882DA0DF8C29F301808B4BE38C
:1001F00068E3882D99DF8A29F301818BDF91CF9104
:100200001F910F91FF90EF90DF90CF90BF90AF9034
:100210008F907F906F9008951F93CF93DF931091ED
:10022000AD0016951695169547E060E0812F7CDFAE
:10023000CEEAD0E09A85892B8A874FE068E0812F4B
:1002400073DF9B85892B8B8747E160E1812F6CDF12
:100250009C85892B8C874FE168E1812F65DF9D8527
:10026000892B8D8747E260E2812F5EDF9E85892B97
:100270008E874FE268E2812F57DF9F85892B8F871A
:1002800047E360E3812F50DF9889892B888B4BE30C
:1002900068E3812F49DF9989892B898BDF91CF9181
:1002A0001F9108951F93CF93DF931091AD00169582
:1002B0001695169547E060E0812F36DFCEEAD0E054
:1002C00080959A8589238A874FE068E0812F2CDF0B
:1002D00080959B8589238B8747E160E1812F24DF0F
:1002E00080959C8589238C874FE168E1812F1CDFF5
:1002F00080959D8589238D8747E260E2812F14DFF9
:1003000080959E8589238E874FE268E2812F0CDFDE
:1003100080959F8589238F8747E360E3812F04DFE2
:10032000809598898923888B4BE368E3812FFCDED5
:10033000809599898923898BDF91CF911F910895A9
:10034000E8EBF0E090E0981719F061939F5FFBCF26
:100350000895855F823138F4E82FF0E0E255FF4FD1
:1003600060838F5FF7CF0895282F837029F4822F41
:1003700064E65FDD911105C081E0222319F080E081
:10038000089581E008951F93CF93DF93CDB7DEB733
:1003900063970FB6F894DEBF0FBECDBF2D873E87A3
:1003A0004F87588B162F698B7A8B8B8BDDDF9FE104
:1003B0009983845E8A839B838EE18C839D838E8365
:1003C0009F83988789879A878B879C87612F70E0A6
:1003D0006150710980E090E040E0242F30E0261762
:1003E00037075CF4E1E0F0E0EC0FFD1FE20FF31FD4
:1003F0002081820F911D4F5FF0CF2889820F911DC0
:1004000063960FB6F894DEBF0FBECDBFDF91CF91DC
:100410001F910895AF92BF92CF92DF92EF92FF9219
:100420000F93CF93DF93CDB7DEB72E970FB6F89427
:10043000DEBF0FBECDBF982F81E0901308C06E11B4
:1004400003C0D51638F405C06E1520F002C0901711
:1004500008F080E02E960FB6F894DEBF0FBECDBF39
:10046000DF91CF910F91FF90EF90DF90CF90BF90F1
:10047000AF9008958F929F92AF92BF92CF92DF92EA
:10048000EF92FF920F931F93CF93DF93CDB7DEB719
:100490006C970FB6F894DEBF0FBECDBF822E2F87AC
:1004A000B32F388BA42F498BF52F5A8BE62F6B8BEC
:1004B000972F7C8B8D8BAE8ABF8AC88ED98EEA8EA1
:1004C000FB8E102F0C8F982E282D3B2F4A2F5F2F3D
:1004D0006E2F792F9FDF882399F087E0FE013F96EA
:1004E000DE01189601900D928A95E1F787E0FE01F2
:1004F0007696DE01119601900D928A95E1F715C06E
:1005000087E0FE017696DE01189601900D928A959D
:10051000E1F787E0FE013F96DE01119601900D9212
:100520008A95E1F7892D902E182F092DE12CF12CB9
:10053000011778F4802F18DF811105C083E9E81ACC
:100540008EEFF80A04C082E9E81A8EEFF80A0F5F0E
:10055000EFCF288539854A855B856C857D85892D1A
:1005600012DF4C0129813A814B815C816D817E8152
:10057000812F09DF8E0D9F1D881999096C960FB682
:10058000F894DEBF0FBECDBFDF91CF911F910F91C9
:10059000FF90EF90DF90CF90BF90AF909F908F90A3
:1005A00008951F93CF93DF93C82F142FD22FC8DE47
:1005B000EC2FF0E0E255FF4F12876D2F8C2FDF916B
:1005C000CF911F91C6CE282FE62F6AE032DCF0E0F3
:1005D000E255FF4F8083E42FF0E0E255FF4F9AE0B1
:1005E000899F2019112420830895CF93C62F9091BD
:1005F000C000992339F08D3010F08C5003C0811168
:1006000001C08CE045E064E0DEDF9091C0008091A5
:100610007000A091B300E091B2009923C1F0CD30F9
:1006200018F09091760002C090917100B0E0A05A4D
:10063000BF4F2C91F0E0E05AFF4F30813093AE0075
:100640002093AF008093B0009093B10011C0B0E050
:10065000A05ABF4F9C919058F0E0E05AFF4F208184
:100660002093AE009093AF008093B0008093B100D0
:10067000CF910895CF93282F809194009091950069
:1006800063E170E0E2DB2617D0F0862FC62FC69517
:10069000C695C69598E0C99F801911249091C30012
:1006A00090FF05C025DD20E0482F6FEF05C020DD5D
:1006B000482F40952FEF60E08C2FCF9172CFCF91D4
:1006C00008958F92AF92CF92EF920F93882E80E190
:1006D000A82E94E8C92E21E2E22E08E022E440E1AF
:1006E00064E881E23CDD0F91EF90CF90AF908F9066
:1006F0000895EEEAF0E021E2228794E8938780E112
:10070000848732E4358738E036872787908B818B62
:1007100008958C3008F08C5025E0829FC001112490
:10072000FC0123E0F595E7952A95E1F7E65F9C014A
:100730002770332781E090E001C0880F2A95EAF7FF
:10074000F0E0E255FF4F611104C08095908189234C
:1007500002C09081892B808308958F92AF92CF92AF
:10076000EF920F931F93CF93DF9380917E008E3093
:1007700031F08F3039F48091AD0080FF03C09CDCF4
:100780008093AD0090917E00992321F09A3011F072
:10079000933681F41092BF001092BE001092BD00FB
:1007A0001092BC001092BB001092BA001092B900D7
:1007B0001092B8008091AD00882E8694869486941D
:1007C000C82F28E0829EC0191124983009F470C007
:1007D00080F4943009F447C038F4923041F128F5A0
:1007E000913009F442C150C1963009F465C088F1D6
:1007F00040C09C3009F4DBC070F49A3009F46FC03B
:1008000008F0A4C0DF91CF911F910F91EF90CF908E
:10081000AF908F902FCF903120F49E3008F407C115
:1008200024C1933609F416C12FC1D0E006C08C2F25
:100830006FDC482F40952FEF14C0D81509F424C160
:100840008C2F56DC20E0482F6FEF882DAADEDF5F6B
:10085000F4CF8091C30080FF06C08C2F49DC20E0DC
:10086000482F6FEF07C18C2F43DC482F40952FEFA7
:1008700000C165E0DEDA91111FC080FF0CC031E2DB
:10088000A32E48E0C42E52E4E52E00E124E841E224
:1008900068E082E40BC088E0A82E92E4C92E20E133
:1008A000E22E04E821E248E062E480E158DCECC09A
:1008B00065E0BFDA992351F0882DDF91CF911F9128
:1008C0000F91EF90CF90AF908F90FBCEA12CC12CC9
:1008D000E12C00E020E040E060E080E0E7CF8091A4
:1008E000C3008093AD0090918B00891305C0909157
:1008F0007B00933109F0C8C080938B00F89461E0CD
:100900008091C40006DF7894C091AD008C2F65E023
:1009100090DA692F70E080E090E0C4DA20E030E007
:10092000A901BADA811109C0C150C093AD0074DCCD
:100930008091AD008E5F8093AD00DF91CF911F91CC
:100940000F91EF90CF90AF908F9066CC9FEF9093E8
:10095000BF009093BE009093BD009093BC00909315
:10096000BB009093BA009093B9009093B80080FFB9
:100970001CC02091C300822F65E05BDA992319F037
:100980002093AD0009C021502093AD008BDC8091F5
:10099000AD008E5F8093AD00DF91CF911F910F91DD
:1009A000EF90CF90AF908F907DCCF8944DC09FEF9B
:1009B0009093BF009093BE009093BD009093BC00B5
:1009C0009093BB009093BA009093B9009093B800B5
:1009D00080FF5AC08091C3008093AD00F89460E01E
:1009E0008091C40096DE78948091AD00882319F040
:1009F00081508093AD00C091AD00D3E0DC0F15E0D5
:100A0000DC1709F441C0CC3318F4C093AD0004C026
:100A100085EC8C0F8093AD008091AD00612F09DAD9
:100A2000992319F0F8943EDC7894CF5FE9CF80FFEA
:100A300013C08091C3008093AD00F8948091AD0005
:100A40008695869586953DDE60E08091C40061DEE6
:100A500078941AC080FF18C0DF91CF911F910F9139
:100A6000EF90CF90AF908F9044CE8C2F51DB20E051
:100A7000482F60E0882DDF91CF911F910F91EF906B
:100A8000CF90AF908F908DCDDF91CF911F910F912F
:100A9000EF90CF90AF908F900895282F6AE0C9D93A
:100AA0009AE0899F2019112490917B00903149F0A0
:100AB0003091C000332319F09E3041F402C09D30C4
:100AC00029F48093B2002093B30004C08093B40053
:100AD0002093B500809170009C3011F0913181F429
:100AE000E091B500F0E0E05AFF4F9081E091B40052
:100AF000F0E0E05AFF4F20818093AE00805817C08D
:100B00002091C000211103C09E30D9F402C09D3055
:100B1000A9F4E091B500F0E0E05AFF4F9081E09138
:100B2000B400F0E0E05AFF4F20818093AE00809344
:100B3000AF002093B0009093B10008959E3051F41F
:100B400002C09D3039F4E091B300F0E0E05AFF4F6D
:100B5000908107C0E091B300F0E0E05AFF4F908130
:100B60009058E091B200F0E0E05AFF4F20812093CE
:100B7000AE009093AF008093B0008093B1000895D1
:100B8000CF93DF9380917B00873099F4E0919900B7
:100B9000F0919A00E05AFF4F908180917500805843
:100BA000209173002093AE008093AF001092B000AC
:100BB000F7C1823009F094C0809183009091840045
:100BC000009709F057C08091C0008823D9F0809128
:100BD000990090919A0064E670E037D99C01962FB5
:100BE0006D3018F094EF960F03C0611101C09CE0C6
:100BF000A90164E6969F400D511D112450939A005F
:100C0000409399002091990090919A00822F64E678
:100C100070E01BD9862FD62FC22F94E6699FC0198A
:100C2000112445E064E0CFDC47E066E08C2FCBDCAC
:100C3000DA3048F0E091B200F0E0E05AFF4F8081F6
:100C40008093AE0002C01092AE00E091B300F0E0DD
:100C5000E05AFF4F80818093AF0020919400309143
:100C600095002115324018F480588093AF00E09130
:100C7000B40076C08530910528F48091750090917C
:100C8000730088C08A30910528F480917400909197
:100C9000710019C08031910548F4809170009091E5
:100CA0007200209175003091740011C0459738F49E
:100CB00080916D00909178002091720035C18091F3
:100CC000740090916C0020916A003091650030931F
:100CD000AE002093AF009093B0008093B10062C14A
:100CE000833009F04DC08091C0002091990090910F
:100CF0009A00882359F0822F64E670E0A6D8862FE8
:100D0000C22F54E6659FC01911240AC0822F64E6E1
:100D100070E09BD8C62F822F94E6699F801911241A
:100D200045E064E050DC47E066E08C2F4CDCE0916D
:100D3000B200EE2329F0F0E0E05AFF4F808102C0BC
:100D4000809170008093AE00E091B300F0E0E05A33
:100D5000FF4F80818093AF00E091B400EE2329F033
:100D6000F0E0E05AFF4F808102C0809170008093D4
:100D7000B000E091B500F0E0E05AFF4F8081ADCFC8
:100D8000853069F49091AD0090FF09C080917A00A0
:100D900090917900209171003091720098CF9BEF73
:100DA000980F923020F098EF980F9230A8F480912D
:100DB000990090919A0064E670E047D8C62F45E00C
:100DC00064E08C2F00DC8091990047E066E054E6F7
:100DD000C59F8019112472C0843009F048C0209149
:100DE0009900822F64E625D88093B20046E065E042
:100DF00094E6899F20191124822FE5DB8091B200AF
:100E0000811103C01092AE0007C0E82FF0E0E05A55
:100E1000FF4F90819093AE00E091B300E11105C0C7
:100E2000811103C01092AF0006C0F0E0E05AFF4FFE
:100E300080818093AF00E091B400F0E0E05AFF4F72
:100E400080818093B000E091C000F0E0EE0FFF1FC2
:100E5000E459FF4F80818093B100809196008130EA
:100E600009F0A0C0809177008093AE009BC08B30CA
:100E700019F48091CC0043C08C3019F48091CB00E0
:100E800045C08D3019F48091CD0040C08E3019F4EA
:100E90008091CE003BC08F3059F582E08093B20044
:100EA0002091D000822F64E6C4D78093B30047E03E
:100EB00066E054E6859F20191124822F84DBE0919F
:100EC000B500F0E0E05AFF4F8081E091B400F0E01F
:100ED000E05AFF4F9081E091B300F0E0E05AFF4FFD
:100EE0002081E091B200F0E0E05AFF4F3081EFCE78
:100EF000803141F480918900D0DD80918900682F94
:100F000074DB50C0813121F480918A00C6DD4AC073
:100F10008231C1F4909188008091700020916F001F
:100F2000913049F490916D002093AE009093AF0002
:100F30008093B000D2CE90916E002093AE0090933B
:100F4000AF00C9CE8331D1F447E066E080917E00E6
:100F50003ADBE091B500F0E0E05AFF4F9081E0917C
:100F6000B400F0E0E05AFF4F208180917000809340
:100F7000AE008093AF002093B00012C0843191F492
:100F8000E0918F00E093B500F0E0E05AFF4F9081D0
:100F9000809170008093AE008093AF008093B0008A
:100FA0009093B100DF91CF91D8CBC4982FE38EE717
:100FB00095E0215080409040E1F700C00000C49AC5
:100FC0002FE38EE795E0215080409040E1F700C08C
:100FD00000000895839B04C0829904C082E00895B4
:100FE00081E0089580E008959091C0008536D8F0A2
:100FF000913091F48E3608F090E09093960020E8BE
:1010000030E0281B310949E0429FC001439F900D09
:1010100011246BEF7FEF11C091E09093960060E890
:10102000681B862F089510929600913049F429E0AC
:10103000829FC001112465E070E01BD780E2860F1B
:10104000089580939200A6D52093C2003093C300E8
:101050004093C4005093C5006093C6007093C700CE
:101060008093C8002093AD008FE295E70197F1F7D8
:1010700000C0000008954FEF45BB90E0BC016C5FDD
:101080007F4F21E030E001C0220F6A95EAF72095FA
:101090002C7F22BB20919100222339F0FC01E255E4
:1010A000FF4F808180958BBB08954BBB08959CEFCB
:1010B00092BB90919000992349F065BBE82FF0E036
:1010C000E255FF4F808180958BBB08958FEF8BBBDE
:1010D00085BB08951F920F920FB60F9211242F9384
:1010E0003F934F935F936F937F938F939F93AF93B0
:1010F000BF93EF93FF938FB78093A50080919400E7
:101100009091950001969093950080939400809122
:10111000C2008093A4009091C10089130CC08091FB
:10112000930081110AC0109295001092940081E002
:101130008093930002C01092930080919700909149
:10114000980084309105C0F420919200222361F030
:1011500021E040919400509195004115524008F0D3
:1011600020E02093910006C020917B00213011F4F3
:101170001092910080DF20C0FC013497E830F10527
:10118000D8F4EF5EFF4F09946EEF8AE014C06DEF64
:101190008BE011C06BEF8CE00EC067EF8DE00BC0F1
:1011A0006FEE8EE008C06FED8FE005C06FEB80E161
:1011B00002C06FE781E17BDF8091C2008093C100B4
:1011C000809197009091980001968C30910528F4B9
:1011D000909398008093970019C0109298001092F5
:1011E000970080918D008F5F80938D0090918E008D
:1011F000981740F410928D0081E0809391008093C5
:10120000900004C010929100109290008091AA006A
:10121000882351F08091A900883018F01092AA001C
:1012200003C08F5F8093A9008091AB00882349F0B1
:101230008091A7009091A80001969093A8008093B8
:10124000A7008091A5008FBFFF91EF91BF91AF9153
:101250009F918F917F916F915F914F913F912F91CE
:101260000F900FBE0F901F901895809188008823D3
:10127000B9F09091C40080918900981311C09091A9
:10128000C30080918A0098130BC08091C200811125
:1012900007C081E080938700109282001092810045
:1012A00080918700882379F080DE80918100909181
:1012B00082000196909382008093810084359B4048
:1012C00011F4109287000895CF93C82F80FF05C0B6
:1012D0006091C0008BE090E04CD6C1FF05C06091EA
:1012E000C9008CE090E045D6C2FF05C060917E0049
:1012F0008AE090E03ED6C3FF05C060918F0089E090
:1013000090E037D66091C0008091C900680F80914D
:101310007E00680F80918F00680F88E090E0CF9189
:1013200028C61F920F920FB60F9211248F938FB77A
:101330008093A5008091AA008F5F823018F480937B
:10134000AA001CC01092AA008091AB008F5F80930E
:10135000AB0081E08093AC0080917B00883029F065
:101360008093A60088E080937B00809187008111A4
:10137000109287001092A8001092A7001092A90066
:101380008091A5008FBF8F910F900FBE0F901F907F
:101390001895AF92BF92CF92DF92EF92FF920F9388
:1013A00080917B008B3010F081E001C080E049DE4D
:1013B00080917B00843009F4D1C058F4823009F464
:1013C0006BC0833009F0E3C02091C6008091C50056
:1013D000CEC0863009F4D2C008F440C0883009F08D
:1013E000D6C02091A7003091A8002D3D8FEF38077F
:1013F00048F01092A8001092A7001092AB008091C4
:10140000A600A9C08091AB0090E090939A008093D1
:1014100099008091AC00813019F08230A1F0B7C002
:1014200083E680937E00C1DD1092A8001092A70091
:1014300082E08093AC000F91FF90EF90DF90CF900F
:10144000BF90AF90B2CD2131374208F4A0C0809157
:101450007D0080937E001092AC0099C0A0909C000B
:10146000B0909D00C0909E00D0909F00E090A000A2
:10147000F090A1000091A2002091C2003091C30021
:101480004091C4005091C5006091C6007091C700A2
:101490008091C800EFD777C080918300909184003D
:1014A000009729F42091C4008091C30060C0863069
:1014B000910560F488E790E0909386008093850022
:1014C000109284001092830083E045C08B30910518
:1014D00070F481E0B6DD84E893E090938600809319
:1014E0008500109284001092830081E134C0803125
:1014F000910560F484E893E09093860080938500E2
:10150000109284001092830083E125C0459760F417
:1015100084E893E090938600809385001092840085
:101520001092830084E117C081E08093920084E8E8
:1015300093E090938600809385001092840010922F
:10154000830087E0E2ECF0E0AAECB0E001900D92BD
:101550008A95E1F78FE080937B0019C010929A0082
:101560001092990049D440DD90E003970CC090E0C0
:1015700034E6239F800D911D112405C08091C80081
:1015800090E08053984F90939A00809399000F9128
:10159000FF90EF90DF90CF90BF90AF900895809133
:1015A0008700811110928700E0917B00EB3040F0C2
:1015B0001092920084E893E09093860080938500D7
:1015C0008E2F90E0FC013197E431F10508F082C0E4
:1015D000E75EFF4F09941092AB001092AC0008C078
:1015E00085E080937B00089584E0FBCF81E0F9CF14
:1015F00082E0F7CF8091CC008F5F883118F4809320
:10160000CC0008951092CC0008958091CB008F5F9C
:101610008C3318F48093CB0008951092CB0008957A
:101620008091CD008F5F803208F081E08093CD0003
:1016300008958091CE008F5F8D3008F081E0809317
:10164000CE0008958091D0008F5F853608F08AE043
:101650008093D0000895809189008F5F883118F4BD
:1016600080938900089510928900089580918A00DE
:101670008F5F8C3318F480938A00089510928A004B
:101680000895809188008F5F823018F480938800DD
:10169000089510928800089580E0D3DC80917E0048
:1016A0008F5F80937E0090917C00981798F48091D2
:1016B0008C0080937E00089580918F008F5F8A3028
:1016C00018F480938F0002C010928F0080918F00D9
:1016D00080938E0008958091870081111092870079
:1016E000E0917B008E2F90E0FC013297E331F10511
:1016F00008F071C0E35DFF4F099482E080937B00A6
:10170000809183009091840001969093840080934F
:10171000830090939A0080939900089588E790E061
:10172000909386008093850086E01FC082E01DC0F4
:10173000109292002091CA003091CB004091CC00D1
:101740005091CD006091CE007091CF008091D0007B
:101750009AD22AC08BE009C08CE007C08DE005C09A
:101760008EE003C082E101C080E180937B00089598
:10177000109292006091890086E090E0FAD3609127
:101780008A0087E090E0F5D36091880085E090E0E2
:10179000F0D36091890080918A00680F8091880061
:1017A000680F84E090E0E5D31092860010928500E7
:1017B000FCCB1092920084E087DD80917E008093C4
:1017C0007D00F2CF10929200109286001092850058
:1017D000ECDB88E079CD08950F931F93CF93DF93CF
:1017E0008FEF8BBB8ABB97B3916197BB98B39F6117
:1017F00098BB85BB84BB92B39C6F92BB91B3906F37
:1018000091BB16B882BF13BE8FEF90E09DBD8CBD1B
:1018100082E08FBD8AE08EBD80E889BF85B78A608F
:1018200085BF86B7816086BF8BB780628BBF109201
:10183000AB001092AA001092AC001092A800109277
:10184000A7008091C2008093C1008093A4008BE028
:1018500090E087D3082F8093C0008CE090E081D384
:10186000C82F8093C9008AE090E07BD3182F809323
:101870007E0089E090E075D3D82F80938F0088E0B8
:1018800090E06FD390E02C2F30E0200F311D210F1E
:10189000311D2D0F311D8217930759F081E0809380
:1018A000C9001092C00080937E0010928F008FE0DC
:1018B0000BDD80917E0080937D0087E090E051D326
:1018C000182F80938A0086E090E04BD3C82F809336
:1018D000890085E090E045D3D82F8093880084E08C
:1018E00090E03FD390E02C2F30E0210F311D2D0FE1
:1018F000311D8217930709F18EE180938A0086E0FB
:1019000080938900109288006EE187E090E031D3E7
:101910006091890086E090E02CD36091880085E09A
:1019200090E027D360918A0080918900680F8091B0
:101930008800680F84E090E01CD310929C00109205
:101940009E0010929D0083E090E00BD380939F0057
:1019500082E090E006D38093A00081E090E001D384
:101960008093A20080E090E0FCD290E040910300E0
:101970002091020030E0240F311D40910100240F1E
:10198000311D8217930709F182E180939F0094E053
:101990009093A0008093A20062E183E090E0E9D2FE
:1019A0006091A00082E090E0E4D26091A20081E02A
:1019B00090E0DFD260919F008091A000680F80913D
:1019C000A200680F80E090E0D4D282E080937B0098
:1019D000839B0BC0829909C081E09091C000911156
:1019E00080E08093C00081E06FDC83990BC0829B14
:1019F00009C081E09091C900911180E08093C900F5
:101A000082E062DC2FEF8EE994E22150804090402A
:101A1000E1F700C000007894DF91CF911F910F9102
:101A20000895DADED2E013E005E089E0F82ED2DA9C
:101A3000C82F813011F4B3DD07C0823011F44BDEC2
:101A400003C0A7DCCC2349F02FEB87E299E02150BB
:101A500080409040E1F700C0000092D806DC809101
:101A6000850090918600009741F420917B002930F9
:101A700020F0D0937B001092800001979093860015
:101A8000809385002091C200822F612FD2D19111C5
:101A900004C080917B00823049F4822F6F2DC9D120
:101AA0009111C5CF80917B00823009F68091C900E9
:101AB000882391F08091A300281771F02093A30050
:101AC00080917B00863040F48F5F863019F08093E0
:101AD0007B0002C0D0937B0080918F00893009F099
:101AE000A6CF8091C40099EF980F9D3018F0009315
:101AF0008E009DCF8950893018F010938E0097CFBB
:101B000010928E0094CFC398C198C19A089587B35C
:101B10008B7F8A6087BBC29820E030E080E041E0A4
:101B200050E0C39894E09A95F1F7B29B07C0BA01D0
:101B3000022E01C0660F0A94EAF7862BC39A94E03E
:101B40009A95F1F72F5F3F4F2830310551F70895EF
:101B500097B39E6097BB20E030E090E0C39844E0EC
:101B60004A95F1F7AC01022E02C0559547950A94AB
:101B7000E2F740FD02C0C29801C0C29A0000000016
:101B8000C39A44E04A95F1F72F5F3F4F2830310563
:101B900029F70895BF92CF92DF92EF92FF920F93B1
:101BA0001F93CF93DF93CDB7DEB727970FB6F89487
:101BB000DEBF0FBECDBFA7DF8FEBCADFA8DFB82E19
:101BC000A6DFE82EA4DF182FA2DFF82EA0DF082F53
:101BD0009EDFC82E9CDFD82E96DF2B2D20772695F2
:101BE00026952695822F880F880F280F8B2D8F70B2
:101BF000280F3E2D3077369536953695832F880FF2
:101C0000880F380F9E2D9F70390F412F17FD0AC086
:101C10004073469546954695842F880F880F480F48
:101C20001F70410F5F2D5073569556955695852F11
:101C3000880F880F580F9F2D9F7004FB662760F94F
:101C4000660F862F880F880F680F0F70ED2DE295B5
:101C5000EF708D2D8F70590F600F7C2D9AE0E99FEA
:101C6000800D112490E027960FB6F894DEBF0FBECA
:101C7000CDBFDF91CF911F910F91FF90EF90DF903B
:101C8000CF90BF900895CF92DF92EF92FF920F9383
:101C90001F93CF93DF93CDB7DEB727970FB6F89496
:101CA000DEBF0FBECDBF7E83142FD52EF62EE82EBD
:101CB0002AE0832F622FBDD0092F30E1839FC0011E
:101CC0001124082B47FD08C0842FB3D0192F20E121
:101CD000829FC0011124182BCE8015DF8EEB38DFD8
:101CE00080E036DF802F34DF812F32DF1AE08D2D48
:101CF000612F9FD0292F30E1839FC0011124822BB7
:101D000027DF8F2D612F95D0292F30E1839FC001D0
:101D10001124822B1DDF8C2D1BDF8E2D612F89D08E
:101D2000292F30E1839FC0011124822B11DF80E035
:101D30000FDF27960FB6F894DEBF0FBECDBFDF9141
:101D4000CF911F910F91FF90EF90DF90CF90DBCE5E
:101D5000C098B89A8FE995E00197F1F700C00000AC
:101D6000B89890EF9A95F1F786B3EBEEF4E03197DF
:101D7000F1F700C0000081700895F894C098B89AF7
:101D800094E09A95F1F78111B89880EF8A95F1F770
:101D9000B89878940895F894C098B89A84E08A9591
:101DA000F1F7B89898E39A95F1F786B394EB9A9582
:101DB000F1F7789481700895CF93DF93D82FC9E01D
:101DC000C15029F08D2F8170D8DFD695F9CFDF91E2
:101DD000CF910895CF93DF93D9E0C0E0D15041F087
:101DE000DADF20E8829FC0011124C695C82BF6CF08
:101DF0008C2FDF91CF910895CF93DF93A9DF8CECE7
:101E0000DBDF84E4D9DFA4DF8CECD6DF8EEBD4DF1C
:101E1000E1DFD82FDFDFC82F9BDF8D2F82958F70FA
:101E2000C77090E1C99F90011124822BDF91CF915F
:101E30000895991B79E004C0991F961708F0961B26
:101E4000881F7A95C9F780950895AA1BBB1B51E19D
:101E500007C0AA1FBB1FA617B70710F0A61BB70B1A
:101E6000881F991F5A95A9F780959095BC01CD01BF
:101E7000089597FB072E16F4009406D077FD08D03E
:101E8000E4DF07FC05D03EF4909581959F4F0895BF
:101E9000709561957F4F089540D008F481E00895D2
:101EA000E89409C097FB3EF49095809570956195F4
:101EB0007F4F8F4F9F4F9923A9F0F92F96E9BB27AA
:101EC0009395F695879577956795B795F111F8CF26
:101ED000FAF4BB0F11F460FF1BC06F5F7F4F8F4F91
:101EE0009F4F16C0882311F096E911C0772321F087
:101EF0009EE8872F762F05C0662371F096E8862F1F
:101F000070E060E02AF09A95660F771F881FDAF775
:101F1000880F9695879597F90895990F0008550FA2
:101F2000AA0BE0E8FEEF16161706E807F907C0F05F
:101F300012161306E407F50798F0621B730B840B67
:101F4000950B39F40A2661F0232B242B252B21F441
:101F500008950A2609F4A140A6958FEF811D811DE1
:101F60000895E199FECF9FBB8EBBE09A99278DB370
:101F70000895262FE199FECF9FBB8EBB2DBB0FB6D8
:101F8000F894E29AE19A0FBE01960895F894FFCF73
:101F90003F065B4F666D7D077F6F80633954715CD0
:101FA00000775E7838797340106E6D020F0101AAD8
:00000001FF
